:100000000C9466050C94AD050C94AD050C94AD05EF
:100010000C94AD050C94AD050C94AD050C94AD0598
:100020000C94AD050C94AD050C946B1D0C94A71CA1
:100030000C94A3260C94AD050C94AD050C94AD0561
:100040000C94AD050C94AD050C94AD050C94AD0568
:100050000C94AD050C9462260C94AD050C94AD0582
:100060000C94AD050C94AD050C94AD050C94AD0548
:100070000C94AD050C94AD050C94AD050C94AD0538
:100080000C94AD050C94AD050C94AD050C94AD0528
:100090000C94AD050C94AD050C94AD050C94AD0518
:1000A0000C94AD050C94AD050C94AD055708B6083D
:1000B000BB08C008C508CA08CF08D408D908DE089C
:1000C000E308EA08ED08F008F308F608F908FC0868
:1000D000FF080409BE09BE09F809F8094B0A670AB6
:1000E000F90BF90B720A500B610B610BC11AE81A7C
:1000F000891CE81A891C341B571B891C4C1C5B1C6F
:10010000A61EA61EB91EB91EAF1EB91EB91EB91E67
:10011000A61EA61EB41EB91EB91EB41E7267626C5E
:10012000696768742064697361626C65205B45452A
:1001300050524F4D5D3A207267626C696768745F18
:10014000636F6E6669672E656E61626C65203D2027
:1001500025750A007267626C6967687420656E6154
:10016000626C65205B454550524F4D5D3A20726789
:10017000626C696768745F636F6E6669672E656E2F
:1001800061626C65203D2025750A007267626C69AA
:1001900067687420746F67676C65205B45455052D3
:1001A0004F4D5D3A207267626C696768745F636F78
:1001B0006E6669672E656E61626C65203D202575EF
:1001C0000A0044454255473A2064697361626C6590
:1001D000642E0A0044454255473A20656E61626CC0
:1001E00065642E0A0029001E001F00200021002245
:1001F000004E0049004B0023002400250026002764
:10020000002A002B0014001A000800150017002F08
:1002100000AE0030001C0018000C0012001300316A
:1002200000390004001600070009000A004D004ACA
:10023000004C000B000D000E000F0033003400E1F5
:10024000001D001B000600190005002D0052002EA5
:100250000011001000360037003800E500E000E330
:1002600000E2000B552C002C00500051004F002CD8
:10027000002C002A003500015328420000AA00A8E3
:1002800000A900000000000000000000005300541E
:1002900000550056002A002A000000AC00AE00AB5A
:1002A00000000000000000000000005F006000612E
:1002B00000570000000000000000000000000000E7
:1002C0000000000000000000005C005D005E0057C0
:1002D000000000000000000000000000000000001E
:1002E0000000005200000059005A005B0058000056
:1002F00000000000000000000000000000000050AE
:100300000051004F006200620063005800010001CC
:100310000000003A003B003C003D003E00000003AE
:100320005300003F00400041004200430000000035
:100330000044004500000000000000000000000034
:1003400000000000000000000000000000000000AD
:10035000000000000000000000000000000000009D
:10036000000000000000000000000000000000008D
:10037000000000000000000000000000000000007D
:10038000000000000000000000000000000000006D
:10039000000000000000000000000000000000005D
:1003A000000000010001000000000000000000004B
:1003B000000000000001000000000000000000003C
:1003C00000000000000000005C015CDF5C00000039
:1003D000000000000000000000C05CC15CC25CBC0A
:1003E0005CBF5C0000000000000000000000000096
:1003F00000000000000000000000000000BD5CBE26
:100400005CC35CC45CC65CC85CCA5CCC5CCE5CCFC4
:100410005CD05CD15CD25CD35CD45CD55CD65C0037
:1004200000C55CC75CC95CCB5CCD5C000000000013
:1004300000000000000000000001000100290A0087
:100440002575002F002575005D280025640020001B
:10045000256400200025640020002564007C002520
:10046000303258006D6F7573656B6579205B62740F
:100470006E7C782079207620685D287265702F6107
:10048000636C293A205B00000101010101010101B7
:100490000102020202020202020203030303030337
:1004A0000303040404040404040505050505060605
:1004B00006060607070707070808080809090909C3
:1004C0000A0A0A0B0B0B0C0C0C0D0D0D0E0E0E0F69
:1004D0000F0F1010111111121213131414151516F9
:1004E000161717181819191A1A1B1B1C1D1D1E1E6A
:1004F0001F202021222223242425262627282929BB
:100500002A2B2C2D2D2E2F303132323334353637E5
:1005100038393A3B3C3D3E3F4041424344454647E3
:1005200048494A4C4D4E4F50515354555658595ABC
:100530005B5D5E5F616264656668696B6C6D6F7060
:1005400072737577787A7B7D7E8082838587888ACF
:100550008C8E8F91939596989A9C9EA0A2A3A5A706
:10056000A9ABADAFB1B3B5B7BABCBEC0C2C4C6C902
:10057000CBCDCFD1D4D6D8DBDDDFE2E4E7E9EBEEBB
:10058000F0F3F5F8FAFDFF7267626C696768742032
:1005900074696D657220656E61626C65642E0A0017
:1005A0007267626C69676874206D6F6465205B4E6A
:1005B0004F454550524F4D5D3A2025750A007267F0
:1005C000626C69676874206D6F6465205B45455097
:1005D000524F4D5D3A2025750A007267626C69675B
:1005E00068742073657420687376205B4E4F4545B0
:1005F00050524F4D5D3A2025752C25752C25750AD6
:10060000007267626C696768742073657420687330
:1006100076205B454550524F4D5D3A2025752C257F
:10062000752C25750A007267626C696768742072A0
:1006300061696E626F7720736574206873763A2003
:1006400025642C25642C25642C25750A00FFAA7FBF
:1006500055407267626C696768745F636F6E666944
:10066000672E7370656564203D2025640A007267FB
:10067000626C696768745F636F6E6669672E766126
:100680006C203D2025640A007267626C696768749B
:100690005F636F6E6669672E736174203D20256409
:1006A0000A007267626C696768745F636F6E66697F
:1006B000672E687565203D2025640A007267686CA6
:1006C000696768745F636F6E6669672E6D6F6465D6
:1006D000203D2025640A007267626C696768745F58
:1006E000636F6E6669672E656E61626C65203D2082
:1006F00025640A007267626C696768745F636F6E75
:1007000066696720454550524F4D3A0A007267624C
:100710006C696768745F696E6974207267626C697E
:100720006768745F636F6E6669672E6D6F646520BE
:100730003D20302E205772697465206465666175AE
:100740006C742076616C75657320746F204545501C
:10075000524F4D2E0A007267626C696768745F6958
:100760006E6974206565636F6E66696720697320C2
:100770006E6F7420656E61626C65642E0A0072672C
:10078000626C696768745F696E6974207374617202
:1007900074210A007267626C696768745F696E69C8
:1007A000742063616C6C65642E0A000A0025303188
:1007B0003662003A200025303258000A722F63203A
:1007C0003031323334353637383941424344454687
:1007D0000A001E0F0500047F3F1F643214643214A8
:1007E000783C1E1E140A050A0025303258006B653D
:1007F00079626F6172645F7365745F6C65643A20DF
:10080000005B735D004B6579626F61726420737485
:100810006172742E0A000631FF0974A10109751571
:100820000026FF009520750881020976150026FF35
:1008300000952075089102C005010902A1018502F9
:100840000901A100050919012908150025019508CC
:10085000750181020501093009311581257F950255
:100860007508810609381581257F9501750881066F
:10087000050C0A38021581257F950175088106C08F
:10088000C005010980A101850319012AB7001501DE
:1008900026B700950175108100C0050C0901A10162
:1008A000850419012AA002150126A00295017510E0
:1008B0008100C005010906A101050719E029E71516
:1008C00000250195087501810295017508810105D2
:1008D00007190029FF150026FF00950675088100FD
:1008E0000508190129059505750191029501750302
:1008F0009101C05B435D005B445D005B535D005B49
:10090000575D005B525D0009025B00030100A0FA25
:100910000904000001030101000921110100012265
:1009200040000705810308000A09040100010300D3
:100930000000092111010001227B0007058203202C
:10094000000A09040200020300000009211101004D
:10095000012222000705830320000107050303206D
:100960000001120110010000000864697500010017
:10097000010200010C03490064006F0062006F0077
:1009800000001003470065006E00650072006900FA
:1009900063000000040309047267626C696768748D
:1009A0002074696D65722064697361626C652E0ADA
:1009B000002223252628292A2C2D2F3032333536A4
:1009C000383A3B3D3E4042434547494A4C4E5051E0
:1009D000535557595A5C5E6062646668696B6D6F07
:1009E00071737577797B7D7F81838587898A8C8E0A
:1009F00090929496989A9C9E9FA1A3A5A7A8AAAC12
:100A0000AEAFB1B3B4B6B8B9BBBCBEBFC1C2C3C54B
:100A1000C6C7C9CACBCCCDCED0D1D2D2D3D4D5D6ED
:100A2000D7D7D8D9D9DADADBDBDBDCDCDCDCDCDD20
:100A3000DDDDDDDCDCDCDCDCDBDBDBDADAD9D9D804
:100A4000D7D7D6D5D4D3D2D2D1D0CECDCCCBCAC99C
:100A5000C7C6C5C3C2C1BFBEBCBBB9B8B6B4B3B1CB
:100A6000AFAEACAAA8A7A5A3A19F9E9C9A98969466
:100A700092908E8C8A89878583817F7D7B7977753B
:100A800073716F6D6B6968666462605E5C5A59571A
:100A9000555351504E4C4A4947454342403E3D3BD9
:100AA0003A3836353332302F2D2C2A292826252363
:100AB000220A002530325820006B6579626F61721E
:100AC000645F7265706F72743A20000011241FBE5B
:100AD000CFEFDAE0DEBFCDBF04B603FE27C08091C2
:100AE000090390910A03A0910B03B0910C03873086
:100AF000904BA740B04BD1F41092090310920A0317
:100B000010920B0310920C0314BE84B7877F84BF2E
:100B10000FB6F894A895809160008861809360007A
:100B2000109260000FBEE0E0F8E3099511E0A0E04C
:100B3000B1E0E4E9F5E502C005900D92AC39B107EA
:100B4000D9F723E0ACE9B1E001C01D92A930B207AA
:100B5000E1F70E9440150C94C82A0C940000FF9302
:100B6000EF93E0919C01F0919D01309709F0099578
:100B7000EF91FF910895FC018591803011F0EFDF36
:100B8000FBCF0895FF27E0E230E247FF0CC041951C
:100B900097FF09C0EDE26095709580959095611D75
:100BA000711D811D911D27FF02C0219530E350E288
:100BB000AA27660F771F881F991FAA1FA41710F076
:100BC000A41B63955A95A9F7AA3008F0A95FA05D08
:100BD000AF93F395611571058105910541F7ED32EC
:100BE00011F4EF93F395F21718F43F93F395FBCFBD
:100BF0008F91B5DFFA95E1F70895E991F991859123
:100C0000803021F0853219F0AADFF9CF089520E075
:100C1000E89455915532C1F3503311F468945591CD
:100C20005A3348F4505390F3220F022E220F220F12
:100C3000200D250FF4CF0EF421958991999153360B
:100C400019F3533729F1533559F1BC0188279927F6
:100C5000E8945C3621F489919991689455915436C1
:100C600039F446EF7EF077FF0DC08FEF9FEF0AC09B
:100C700055374AE039F0583540E121F0523642E02C
:100C800009F00895FF93EF937DDFEF91FF91B7CFC8
:100C9000FF93EF93FC0181918030B9F360DFFBCFCC
:100CA000FF93EF9368DFF1CFDF93CF93CDB7DEB73C
:100CB0002596A3DFCF91DF9108958F929F92AF92F7
:100CC000BF92CF92DF92EF92FF920F931F93CF9339
:100CD000DF93CDB7DEB72A970FB6F894DEBF0FBE0D
:100CE000CDBFFC010081D18083819481892B39F0B3
:100CF0001FEFD11206C091E00F3F19F403C091E03D
:100D000001C090E090FDB4C57F0185E0DE0116963C
:100D100001900D928A95E1F7F70122818E819F81E2
:100D2000222349F00E94DE27182F682F8E819F8191
:100D30000E94572803C00E942B28182F2BE4129FD3
:100D4000F00111243FE0D39EE00DF11D1124E00FCE
:100D5000F11DEE0FFF1FEB51FE4F05911491043F63
:100D60008CE5180759F190F4093DECE51E07E9F010
:100D70000A3DFCE51F07A1F1083D2CE51207B1F57E
:100D800006E221EE41EE68ED7CE514C0063F3CE54D
:100D9000130701F1C8F0073F9CE5190739F507E291
:100DA00025EE46EE67EF7CE505C007E225EE45EE51
:100DB00069ED7CE5C7010E942F257CC206E221EE89
:100DC00040EE64EF7CE5F6CF07E225EE44EE65EFFA
:100DD0007CE5F0CF06E221EE42EE66EF7CE5EACF5D
:100DE00008E221E045EE6AED7CE5E4CFF70192816F
:100DF000992309F43FC110929E010230FCE51F07C0
:100E000008F422C106312CE5120738F098012B5F57
:100E10003C452930310508F017C10E94F326909314
:100E2000B3018093B20100313CE5130709F4C3C05C
:100E300008F041C008309CE5190709F49AC0F0F4A5
:100E40000430FCE51F0709F487C068F402303CE574
:100E5000130709F477C003301C4509F0E5C0809101
:100E6000B201826076C006309CE5190709F46EC0B5
:100E700008F07BC08091B20188606BC00C30FCE54B
:100E80001F0709F485C068F40A303CE5130709F42C
:100E900074C008F079C00E9489208091B2018068F6
:100EA00058C00E309CE5190709F476C008F07FC0E1
:100EB0008091B2018BC00C3FFCE51F0709F44FC0C5
:100EC00018F503313CE5130709F47DC078F40131CE
:100ED0009CE5190709F473C002311C4509F0A4C050
:100EE0000E9489208091B2018F7733C00531FCE5E3
:100EF0001F0709F472C008F486C00B3F1C4509F0B7
:100F000093C08091B3013EC001158DE5180709F427
:100F10005FC058F40E3FECE51E0709F444C008F426
:100F20003FC08091B30182602DC002302DE51207D1
:100F300009F475C008F45DC003301D4509F074C0A4
:100F400060E06EC08091B201816003C08091B20107
:100F500080618093B20168C08091B20111C080911C
:100F6000B30182608093B3015FC08091B20180625F
:100F7000F0CF8091B2018064ECCF8091B2018860A3
:100F80008460E7CF8160EECF8091B2018E7FE1CFA8
:100F90008091B2018D7FDDCF8091B201877FD9CF63
:100FA0008091B30118C08091B3018D7FDBCF809118
:100FB000B2018F7ECECF8091B2018F7DCACF80915A
:100FC000B2018F7BC6CF8091B201877F8B7FC1CF6B
:100FD0008091B3018D7F8E7FC5CF8091B20182FB5E
:100FE000222720F991E0922790FB82F990FB83F968
:100FF000B0CF8091B301982F909591708E7F892BFF
:1010000090FB81F9AFCF0E9489208091B20187FBCC
:10101000222720F991E0922790FB87F99ACF61E08F
:101020008EE090E00E94DB296091B2011091B30143
:1010300084E090E00E94DB29612F81E290E00E9431
:10104000DB290E94892036C18091030306312CE5FB
:10105000120709F58A7A91E009F490E090939F01D4
:10106000882311F065E301C069E28EE892E00E94F6
:10107000D9260EC006311C4509F03BC180919F0165
:10108000882309F4F3C365E38EE892E00E94CC263E
:101090000E9474270FC18272F801E35CFC45E431C1
:1010A000F10508F0B6C0EA5AFF4F0C94A62A8091C9
:1010B000E00180FF10C08091CC01809581701F926B
:1010C0008F938BE891E09F938F930E9454060F902B
:1010D0000F900F900F908091CC0180FF2EC08E7FDB
:1010E0008093CC016091CC017091CD018091CE01B3
:1010F0009091CF010E94E80C8091E00180FF0FC029
:101100008091CC0181701F928F938CE191E09F932D
:101110008F930E9454060F900F900F900F900E9493
:10112000D2259FEFE0E7F2E09150E040F040E1F798
:1011300000C000000E948E0CBDC081608093CC0175
:101140008091E00180FF0DC01F9281E08F9384E5C4
:1011500091E09F938F930E9454060F900F900F90F1
:101160000F908091CC0161E0869550C04EE65FE023
:1011700067E77FE02CC047E75FE06EE67FE027C0CF
:101180004FEE5EE068EF7EE022C048EF5EE06FEE7B
:101190007EE01DC047ED5EE063EE7EE018C043EEEA
:1011A0005EE067ED7EE013C04FEB5EE06BEC7EE04F
:1011B0000EC04BEC5EE06FEB7EE009C04AEF5CE0F6
:1011C0006BE07DE004C04BE05DE06AEF7CE00E94F4
:1011D000CC2570C061E081E019C065E082E011C0FB
:1011E00068E086E00EC06EE089E00BC064E18FE04D
:1011F00008C067E185E105C061E088E107C062E2FF
:1012000089E10E94BA2556C061E083E20E94010F85
:1012100051C001302CE51207C1F10F3D3CE5130729
:1012200009F446C001151C4509F063C00E948920DD
:101230009FEFE4E3FCE09150E040F040E1F700C0B4
:10124000000081E08093E00080E28093D80010925B
:10125000C9008FE19EE40197F1F700C0000087E02C
:1012600090EBDC018093090390930A03A0930B0396
:10127000B0930C039CE088E10FB6F894A895809396
:1012800060000FBE90936000FFCF8091E001982F27
:101290009095917090FB80F98093E001992319F06B
:1012A00084ED91E002C082EC91E00E94BB0502C097
:1012B0000E94042780910003877009F4D9C2F701C6
:1012C0008281882309F4D4C282E02A960FB6F8946A
:1012D000DEBF0FBECDBFDF91CF911F910F91FF9069
:1012E000EF90DF90CF90BF90AF909F908F900C9435
:1012F000B128F70100811181992349F0C8010E94AA
:10130000DE27D82E682FC8010E94572804C0C801C4
:101310000E942B28D82EB8018D2D0E9420128C01FE
:10132000982EF701D280A580A2942FE0A22280916E
:101330000003877099F0DD2089F0812F807F803451
:1013400021F080E2800F883048F082E00E94B128CE
:10135000809100038770CC24C3948111C12CB12EDD
:10136000B2949FE0B9228B2D90E08C30910508F06B
:1013700040C2FC01E659FF4F0C94A62A812F807FC2
:101380001F70882311F01295107FDD20B9F0112312
:1013900009F41AC280E2800F883010F0911006C064
:1013A00080910303182B1093030305C0809102035F
:1013B000182B109302030E94742706C2802F0E94EC
:1013C000A920112309F415C2005E1095083010F011
:1013D000911006C08091030318231093030305C0E6
:1013E000809102031823109302030E94742701C204
:1013F000812F807F1F70803211F01295107F99200D
:1014000021F0F1E09F16E1F02AC0DD2081F080910B
:101410000403AA2051F001E0A01207C0182B1817EE
:1014200009F4E7C110930403E4C1812B10C0AA2082
:1014300021F021E0A21609F4DCC10E946E2727C02A
:10144000DD2041F035E03A1508F4D3C1812F0E9428
:101450009F20CFC184E08A1508F4CBC118C0DD20DD
:1014600049F0AA2099F3F701858180FFADC18F7003
:101470008583ECCFAA2059F0093309F0B7C1FFEFFB
:1014800017EE23E0F15010402040E1F7ADC1812F6D
:101490000E949420AEC1812F86958695837019F0A5
:1014A000813059F0A6C1DD2019F0C801937002C047
:1014B00080E090E00E940D25A2C1DD2019F0C80156
:1014C000937002C080E090E00E94F72498C1802FC2
:1014D000DD2019F00E94E61002C00E942D100E942B
:1014E000810F8DC1812F837009F069C0D11085C132
:1014F000902F929596959770990F990F802F8F70D6
:10150000882E912CA12CB12C092E04C0880C991C7A
:10151000AA1CBB1C0A94D2F704FF12C04FE050E093
:1015200060E070E004C0440F551F661F771F9A9556
:10153000D2F7DB01CA0180959095A095B09503C0C4
:1015400080E090E0DC0116951695412F4370423003
:1015500019F1C8F4009105031091060320910703C7
:1015600030910803413059F088299929AA29BB29CB
:10157000BC01CD0160237123822393230AC0802AFA
:10158000912AA22AB32ABC01CD01682979298A2986
:101590009B290E94EB2831C188299929AA29BB29B6
:1015A0000091050310910603209107033091080371
:1015B000BC01CD016027712782279327EACFDD2068
:1015C00019F0812F817001C08695882309F415C117
:1015D000902F929596959770990F990F802F8F70F5
:1015E000882E912CA12CB12C092E04C0880C991C9A
:1015F000AA1CBB1C0A94D2F704FF12C04FE050E0B3
:1016000060E070E004C0440F551F661F771F9A9575
:10161000D2F7DB01CA0180959095A095B09503C0E3
:1016200080E090E0DC0116951695412F4370423022
:10163000D9F068F50091AE011091AF012091B00191
:101640003091B101413059F088299929AA29BB2943
:10165000BC01CD0160237123822393231EC0802A05
:10166000912AA22AB32A13C088299929AA29BB2919
:101670000091AE011091AF012091B0013091B10104
:10168000BC01CD01602771278227932706C0BC01CA
:10169000CD01682979298A299B290E948228ADC019
:1016A0001F70DD2039F0812F0E94CA28802F0E94F0
:1016B0009F20A3C0802F0E949420812F0E948C28FD
:1016C0009CC0802F32EF931609F440C0391538F0D2
:1016D00090EF991661F0E1EF9E1699F170C0F3EF6B
:1016E0009F16D9F124EF921609F44EC068C0DD2090
:1016F00019F134E03A1508F47CC01F7181E090E0E4
:10170000A0E0B0E0AC01BD0104C0440F551F661F4E
:10171000771F1A95D2F78091AE019091AF01A091F9
:10172000B001B091B1018A019B01082719272A272E
:101730003B27C901B80125C025E02A1508F459C086
:10174000DCCFDD2029F0812F8F712CC0DD20D9F373
:10175000812F8F710E948C284CC0DD2079F01F7181
:1017600081E090E0A0E0B0E0BC01CD0104C0660FD4
:10177000771F881F991F1A95D2F703C060E070E0A9
:10178000CB010E94822835C0DD2079F01F71812FA6
:101790000E94CA2838E0139FC001112483608093FF
:1017A0000003812F0E94CA2824C081E00E94B12832
:1017B00081E08A15F0F482E00E94B1281AC0DD2091
:1017C00039F0AA2009F4BFCF802F0E94102111C048
:1017D000AA2009F4BDCF893349F49FEFE7EEF3E087
:1017E0009150E040F040E1F700C00000802F0E94DF
:1017F000A92088EF8B0D843010F40E942325CC2083
:10180000A9F08091000380FD11C0F7011282859537
:10181000859585950E94CA28C7010E945D06809122
:1018200000038595859585950E948C2885E0F701B4
:10183000DE01119601900D928A95E1F789819A81D6
:101840000E942B289A810BE4809FF00111241FE055
:10185000919FE00DF11D11248981E80FF11DEE0F1C
:10186000FF1FEB51FE4F8591949102C069E20CCCB1
:101870002A960FB6F894DEBF0FBECDBFDF91CF9191
:101880001F910F91FF90EF90DF90CF90BF90AF909E
:101890009F908F9008959091B20192FF0DC0282FD4
:1018A0002871283019F4877F846006C0282F24719E
:1018B000243011F48B7F886093FF0DC0282F28718E
:1018C000283119F4877E846106C0282F24712431C1
:1018D00011F48B7E88612091B30120FF0DC0382F59
:1018E0003871383019F4877F816006C0382F317124
:1018F000313011F48E7F886021FF0DC0282F2871B0
:10190000283119F4877E816106C0282F2171213189
:1019100011F48E7E886194FD877E08958091CC01BC
:1019200080FF0AC0809A81B38E7F91B391602FB7F8
:10193000F894E8E0F2E00BC0E8E0F2E011821082F7
:101940001282339632E0E833F307C1F7EBCF32E08F
:10195000E833F30789F0319148E091BB000000C003
:1019600037FF81BB330F000000C000C000C081BB47
:1019700000C04A9591F7EBCF2FBF8FE594E0019718
:10198000F1F700C0000008959091CC0190FF0CC0C9
:10199000E8E0F2E0818360834283339692E0E833AB
:1019A000F907C1F70C948E0C08958091CC01282F73
:1019B000269530E02115310519F48170826005C04B
:1019C0002B32310524F0817084658093CC01089519
:1019D000CF92DF92EF92FF926B017C010E94D50CB7
:1019E000B701A60188E090E0FF90EF90DF90CF90E4
:1019F0000C94ED298091D001882319F081508093B7
:101A0000D0016091CC017091CD018091CE01909177
:101A1000CF010C94E80C8091D001833018F48F5FD3
:101A20008093D0016091CC017091CD018091CE0165
:101A30009091CF010C94E80CECECF1E083E0808312
:101A400011828FEF8283838314826081718182810E
:101A500093810C94E80CAF92BF92CF92DF92EF92F9
:101A6000FF920F931F93CF93DF93E82EF62EE90199
:101A7000E42FF0E0611106C0E957FB4FE4914E2FCF
:101A80002E2F71C0062F10E0E957FB4F4491F42F21
:101A9000C42ED12C26E0829FC00111242FEF30E00C
:101AA000B9010E947E2A5BEA5603C001579F900D40
:101AB00011248E0D911D8E0D911D582F550F580F0D
:101AC000D901A01BB10BAC9DC001AD9D900DBC9D7B
:101AD000900D1124E92FF59ED0011124AB2FBB27C7
:101AE0007901EA1AFB0AEC9CD001ED9CB00DFC9C3C
:101AF000B00D11245901A51AB108A09E7001A19E34
:101B0000F00CB09EF00C1124EF2CFF242E193F098D
:101B10002C9D80012D9D100D3C9D100D1124212F19
:101B20006230710591F048F461157105E1F06130A2
:101B30007105B9F4242F4B2F16C06430710569F07C
:101B400040F06630710579F00CC0242F492FE12F49
:101B50000AC0492FEF2F2B2F06C0292FE42F412F2A
:101B600002C0292FEB2F49832883EA83DF91CF918D
:101B70001F910F91FF90EF90DF90CF90BF90AF90AB
:101B80000895CF93DF9300D01F92CDB7DEB7909129
:101B9000CC0190FF0AC09E012F5F3F4F0E942B0D8A
:101BA0004B8169818A810E94C40C0F900F900F9025
:101BB000DF91CF9108953F924F925F926F927F9203
:101BC0008F929F92AF92BF92CF92DF92EF92FF924D
:101BD0000F931F93CF93DF9300D01F92CDB7DEB743
:101BE000182F762E042F422E9091CC0190FFB2C078
:101BF000E92FE695AE2FB0E0A35EBE4F8C918093A7
:101C0000D1019E7F923061F49E012F5F3F4F812F63
:101C10000E942B0D4B8169818A810E94C40C60C097
:101C2000823019F40091CF015BC0863019F4109115
:101C3000CD0156C08930D9F3893109F051C0E9513D
:101C40008E2F8170582E81E0652C6826E695F0E095
:101C5000E35BF94FC590D49038E0A32E32E0B32E69
:101C6000E12CF12CDD2446E2842E46E0942EEC9CFF
:101C7000C001ED9C900DFC9C900D112424E09695E4
:101C800087952A95E1F7312E511002C0380E01C018
:101C9000381A8091E00180FF11C0DF92CF921F922D
:101CA0006F921F923F92FF92EF929F928F920E94AB
:101CB00054060FB6F894DEBF0FBECDBF9501402F7E
:101CC000672D832D0E942B0D9FEFE91AF90A83E0FF
:101CD000A80EB11C90E1E916F10449F60E948E0CA1
:101CE0001093CD017092CE010093CF014420E9F012
:101CF0006091CC017091CD018091CE019091CF0186
:101D00000E94E80C8091E00180FF24C08091CF0107
:101D10001F928F938091CE011F928F938091CD015E
:101D20001F928F9381E096E00CC08091E00180FFCC
:101D300011C01F920F931F927F921F921F938AEDE3
:101D400095E09F938F930E9454060FB6F894DEBFE0
:101D50000FBECDBF0F900F900F90DF91CF911F91CD
:101D60000F91FF90EF90DF90CF90BF90AF909F903A
:101D70008F907F906F905F904F903F900895ECEC24
:101D8000F1E0438128E0421B08F440E021E0628159
:101D900081810C94DB0DECECF1E0438128E0420FF3
:101DA00008F44FEF21E0628181810C94DB0DECECB3
:101DB000F1E0628128E0621B08F460E021E04381E9
:101DC00081810C94DB0DECECF1E0628128E0620F84
:101DD00008F46FEF21E0438181810C94DB0DECEC82
:101DE000F1E0818121E04381628188500C94DB0D18
:101DF000ECECF1E0818121E043816281885F0C9409
:101E0000DB0D9091CC0190FF68C09170811102C0F0
:101E1000926006C08B3210F0946502C0880F982B38
:101E20009093CC016623B1F06091CC017091CD010B
:101E30008091CE019091CF010E94E80C8091E00149
:101E400080FF1BC08091CC0186951F928F938EEBF3
:101E500095E00BC08091E00180FF0FC08091CC0124
:101E600086951F928F9380EA95E09F938F930E94AF
:101E700054060F900F900F900F906091CC016695D3
:101E800070E04BE050E084E091E00E94BB2A892B97
:101E900019F00E94D22515C081E08093D2010E94E2
:101EA00097269093C7018093C6018091E00180FF3F
:101EB00008C087E895E09F938F930E9454060F9087
:101EC0000F9081E08093C90120E04091CF016091A3
:101ED000CE018091CD010C94DB0D08958091CC0151
:101EE0008695815009F48AE261E00C94010F80919B
:101EF000CC0186958F5F8B3208F081E061E00C9415
:101F0000010F8091E00183FF7EC084E694E00E948F
:101F1000BB058091DA011F928F938FE594E09F9328
:101F20008F930E9454068DE594E00E94BB0580913A
:101F3000DB01282F082E000C330B3F938F938AE58B
:101F400094E09F938F930E94540688E594E00E944A
:101F5000BB058091DC01282F082E000C330B3F932A
:101F60008F9385E594E09F938F930E94540683E5B9
:101F700094E00E94BB058091DD01282F082E000C03
:101F8000330B3F938F9380E594E09F938F930E9450
:101F900054068EE494E00E94BB058091DE01282F58
:101FA000082E000C330B3F938F938BE494E09F93A8
:101FB0008F930E94540688E494E00E94BB058091B0
:101FC000D6011F928F9385E494E09F938F930E9494
:101FD000540683E494E00E94BB05809104021F92A2
:101FE0008F9380E494E09F938F930E9454068DE337
:101FF00094E00E94BB058DB79EB74C960FB6F8943F
:102000009EBF0FBE8DBF0E9497262091DB0121113C
:1020100004C02091DC01222321F09093D801809309
:10202000D7012091DD01211104C02091DE0122237E
:1020300021F09093D5018093D401E091B501F09106
:10204000B601309749F082E08093D9010480F58190
:10205000E02D89ED91E0099408958D3E39F4909139
:10206000DC0197FF35C01092DC0159C08E3E29F487
:102070009091DC011916BCF32BC09091DB018F3ECF
:1020800029F497FF25C01092DB0149C0803F19F465
:102090001916CCF31DC09091DD01893F29F4191662
:1020A000BCF41092DD013BC08A3F19F497FF10C0C9
:1020B000F8CF8B3F39F49091DE0197FF09C0109261
:1020C000DE012DC08C3F21F49091DE011916BCF386
:1020D0009FE0980F983080F421E030E0A90102C021
:1020E000440F551F9A95E2F7CA0180959091DA0145
:1020F00089238093DA0113C08D3F21F4809104027B
:102100008E7F0BC08E3F21F4809104028D7F05C02D
:102110008F3F29F4809104028B7F80930402809189
:10212000DB01811106C08091DC01811102C0109297
:10213000D6018091DD01811106C08091DE018111FF
:1021400002C01092D30108958091040280FD16C050
:1021500081FD16C082FD18C08091D301882391F0C3
:10216000883290F428E0829FC001112468E270E078
:102170000E94922A862F672B29F007C082E00895DB
:1021800084E0089581E0089588E008958091040234
:1021900080FD14C081FD14C082FD16C08091D6015F
:1021A000882381F0843180F422E3829FC0011124CE
:1021B00064E170E00E94922A862F08958CE00895D1
:1021C00089E1089585E0089582E308958D3E21F424
:1021D0000E94C610819504C08E3E29F40E94C6104C
:1021E0008093DC0108958F3E21F40E94C6108195F2
:1021F00004C0803F29F40E94C6108093DB0108953B
:10220000893F19F40E94A41005C08A3F31F40E944E
:10221000A41081958093DD0108958B3F21F40E94E5
:10222000A410819504C08C3F29F40E94A4108093CF
:10223000DE0108959FE0980F983078F421E030E0B7
:10224000A90102C0440F551F9A95E2F7CA01909167
:10225000DA01892B8093DA0108958D3F21F4809172
:10226000040281600BC08E3F21F4809104028260E1
:1022700005C08F3F29F4809104028460809304029A
:102280000895F894E82FE295EF70F0E031A1282F3F
:102290002F7081E090E001C0880F2A95EAF7982F0F
:1022A0009095932391A392A1892B82A3789408956A
:1022B0009F92AF92BF92CF92DF92EF92FF920F93D5
:1022C0001F93CF93DF9304EA11E088E4E82E81E0C6
:1022D000F82EC0E0D0E0912CCC24C394D12CB701CF
:1022E000D7018C91F894E82FE295EF70F0E021A1EE
:1022F0008F70A60102C0440F551F8A95E2F7CA01EC
:10230000922F982B91A392A18095892382A37894F0
:1023100000C0EDE4F1E020E030E0A12CB12C4191CF
:10232000842F82958F7090E0DC0190968C9190E0E4
:102330004F7002C0959587954A95E2F780FD08C0D9
:10234000C601022E02C0880F991F0A94E2F702C04C
:1023500080E090E0A82AB92A2F5F3F4F2F30310547
:10236000F1F6BFEFEB1AFB0AFB0180810E944111DD
:10237000C430D10519F0F0EAFA95F1F7D8018D9142
:102380009C911197A816B90621F0AD92BC9281E0FC
:1023900001C080E0982A21960E5F1F4FC530D105FD
:1023A00009F09DCF992049F081E08093A2010E941D
:1023B00097269093A1018093A0018091A201882388
:1023C00091F18091A0019091A1010E948826069729
:1023D00050F18091A4019091A5019093BD0180934B
:1023E000BC018091A6019091A7019093BF018093B9
:1023F000BE018091A8019091A9019093C1018093A1
:10240000C0018091AA019091AB019093C301809388
:10241000C2018091AC019091AD019093C501809370
:10242000C4011092A201892DDF91CF911F910F91CC
:10243000FF90EF90DF90CF90BF90AF909F90089566
:10244000CF93DF932BE4829FC0011124FC013FE076
:10245000739FE00DF11D1124E60FF11DEE0FFF1F1C
:10246000EB51FE4FC591D491CE01C238D10569F12F
:10247000B0F4C133D10509F475C048F4C932D105AF
:1024800009F469C0CA32D10509F473C085C0C533E7
:10249000D10509F459C0C933D105B9F07DC0C33E97
:1024A000D10571F138F4C03ED105B1F0C23ED1057D
:1024B00011F172C0C63ED105B9F1C73ED105C9F1CF
:1024C000C43ED10509F068C024C02091B20120FDAE
:1024D0005DC021FD5BC060C02091B20120FD50C0F5
:1024E0002091B30120FF67C18091B20184FD61C1D9
:1024F00083EE90E060C12091B20122FF5CC1F4CF75
:102500008091B20182FD3FC08091B30180FD3EC049
:10251000EBCF2091B30121FF4EC18091B20184FD28
:1025200048C187EE90E047C12091B20123FF43C12B
:10253000F4CF8091B20183FD2CC08091B30181FF63
:10254000ECCF84EE90E037C12091B20125FF33C17A
:1025500089E290E030C12091B20125FF2CC185E3D2
:1025600090E029C12091B20126FF25C18AE290E0C6
:1025700022C12091B20126FF1EC181E390E01BC160
:1025800089E390E018C182EE90E015C180EE90E002
:1025900012C186EE90E00FC1C11530E5D30708F0F7
:1025A00067C0C11540E4D40720F0CE019F70906A47
:1025B00002C1C83ED105B8F5C03ED10508F0FBC048
:1025C000C83AD105B8F4C53AD10550F08C2F855AD8
:1025D000E82FF0E0E559FE4F808190E09064EBC079
:1025E000C130D10509F4E7C008F4E3C0249708F42A
:1025F000E0C0E1C0CF3BD10560F48C2F885AE82FB2
:10260000F0E0EE0FFF1FE259FE4F8081918194644C
:10261000D2C0C03CD10508F4CCC0FE01EE0FFF1FB4
:10262000E354FD4F0EC0C11520E2D20768F0C1157A
:1026300040E3D407A8F4FE01FF70EE0FFF1FE35C38
:10264000FB4F85919491B7C0C11531E0D30708F0D5
:10265000B2C0CD3ED10508F4ACC0CE019065ABC090
:10266000CE019927D3FF02C0986CA5C0906CA3C07F
:10267000C11585E5D80708F05BC0C11524E5D20770
:1026800028F09C2F8827846F906A95C0C11532E589
:10269000D30738F5C11541E5D407F0F4CE0174E055
:1026A000969587957A95E1F7282F23703C2F337004
:1026B00081E090E002C0880F991F3A95E2F79C688C
:1026C000922BEC2FEF70E695E69540E2E49FF00147
:1026D00011248E2B9F2B6FC09C2F8827816F906AAF
:1026E0006AC0AE01437055272C2F26952695C1153B
:1026F000D34578F481E090E002C0880F991F4A9595
:10270000E2F740E2249F90011124822B932B9C68D6
:1027100052C081E090E002C0880F991F4A95E2F70D
:1027200040E2249F90011124822B932B9A6843C08E
:10273000C11529E5D207B0F4C11538E5D30728F053
:102740009C2F8827806F906A36C0C11546E5D40754
:1027500080F58C2F0E944B0C8F7190E0982F88276A
:10276000906229C0C1158AE5D80790F48C2F8F702C
:102770000E944B0CFE0194E0F695E7959A95E1F7DF
:10278000EF70F0E0FE2FEE27F0699F01282B0FC0BD
:10279000CE0190568115904260F48D2F8F710E946A
:1027A0004B0CFE01FF27F0628F719F01382BC9018E
:1027B00002C080E090E0DF91CF9108958295982F3C
:1027C000937344E0949F900111248C7C86958695A8
:1027D000282B822F8575880F2A7A2695822B0895BB
:1027E0009FB7F8941092EB019FBF9091FA0194303B
:1027F00009F057C09091E9009F703091EC00232FB1
:10280000217030FD20E8922B23E02093E9002091F5
:10281000EB0020FF43C02091EE0027FF3FC0209136
:10282000A301222321F02091E80025FF37C0109258
:10283000A30126E03091E80035FD15C03091FA0182
:10284000343061F53091EB0035FD28C0215021F482
:1028500081E08093A30122C0EFE9FFE03197F1F717
:1028600000C00000E7CF8093F1008091E80085FD73
:102870000AC08091E80080FFFCCF8091E8008E774D
:102880008093E80006C08FB7F89421E02093EB0115
:102890008FBF9F709093E90080E008959F709093A0
:1028A000E9008FEF0895BC0184E00C942F26BC0151
:1028B00083E00C942F262091E4003091E50095E60A
:1028C0004091EC00842F817040FF23C08091E8008C
:1028D00080FD1DC08091FA01882399F0853099F020
:1028E0008091EB0085FD11C04091E4005091E5001E
:1028F0002417350729F3915011F09A01E1CF84E0B4
:10290000089582E0089583E0089581E0089580E0CD
:1029100008954091E80042FFDDCF08958091FC01C9
:1029200087FF11C08091E80082FD05C08091FA0107
:102930008111F8CF11C08091E8008B770BC0809196
:10294000FA01882349F08091E80080FFF8CF809158
:10295000E8008E778093E8000895982F973068F507
:102960009093E900981739F07091EC002091ED00F8
:102970005091F00003C0242F762F50E021FD02C0BB
:102980009F5FECCF3091EB003E7F3093EB003091B6
:10299000ED003D7F3093ED003091EB0031603093DE
:1029A000EB007093EC002093ED005093F000209129
:1029B000EE0027FDE5CF80E008958F708093E90059
:1029C00081E0089520910202309103022617370713
:1029D00048F06115710539F42091E8002E772093B5
:1029E000E80001C0B901FC0120E06115710579F131
:1029F0008091FA018823F1F18530F1F18091E800AE
:102A000083FD3CC08091E80082FD2EC08091E800EB
:102A100080FFEBCF2091F3008091F20090E0922BA9
:102A20006115710551F08830910538F4219120939A
:102A3000F100615071090196F3CF21E0089709F088
:102A400020E08091E8008E778093E800CECF2111BE
:102A5000CFCF0AC08091FA01882361F0853061F000
:102A60008091E80083FD0AC08091E80082FFF2CFE8
:102A700080E0089582E0089583E0089581E008955C
:102A8000CF93DF93CDB7DEB761970FB6F894DEBF73
:102A90000FBECDBF84B7877F84BF0FB6F894A895CB
:102AA00080916000886180936000109260000FBE8A
:102AB00090E080E80FB6F8948093610090936100F5
:102AC0000FBE85B7806885BF85B7806885BF80EFFA
:102AD00093E190939D0180939C010E94EB1C0E94C6
:102AE0000A1D8091E20084608093E20078948091D6
:102AF000FA018823A1F01091E9001F709091EC0079
:102B0000892F817090FD80E8182B1092E900809148
:102B1000E80083FD0E94DC191F701093E90082E039
:102B200084BD93E095BD9AEF97BD80936E0080E3DE
:102B30000E94411183E30E94411187E60E944111E6
:102B400086E30E94411186E60E9441110DE411E0E6
:102B5000F80181918F010E944111F1E00C351F07AE
:102B6000B9F7E4EAF1E0ACEBB1E0119211921D92F9
:102B70001D9221E0EE3AF207C1F780E090E00E945A
:102B8000D5298B3E9E4F11F00E94042780E090E0F3
:102B90000E94D5298B3E9E4F11F00E94042782E0AF
:102BA00090E00E94C7298093E0010E94F326909351
:102BB000B3018093B20183E090E00E94C729682F9F
:102BC00070E080E090E00E94EB288091B4018111D8
:102BD000E0C08091E00180FF08C084E997E09F9306
:102BE0008F930E9454060F900F908091E00180FF18
:102BF00008C08EE797E09F938F930E9454060F9032
:102C00000F9080E090E00E94D5298B3E9E4F81F08E
:102C10008091E00180FF08C086E597E09F938F9345
:102C20000E9454060F900F900E9404270E941C0DD2
:102C300088E090E00E94CF296093CC017093CD0191
:102C40008093CE019093CF016E7FD1F48091E0010B
:102C500080FF08C08DE097E09F938F930E945406F9
:102C60000F900F900E941C0D88E090E00E94CF29E9
:102C70006093CC017093CD018093CE019093CF01EE
:102C80000E94D50C8091E00180FF08C084EF96E09F
:102C90009F938F930E9454060F900F908091E001B4
:102CA00080FF0FC08091CC0181701F928F9387EDC0
:102CB00096E09F938F930E9454060F900F900F9071
:102CC0000F908091E00180FF0FC08091CC0186952C
:102CD0001F928F938CEB96E09F938F930E945406E4
:102CE0000F900F900F900F908091E00180FF0EC029
:102CF0008091CD011F928F9382EA96E09F938F93EC
:102D00000E9454060F900F900F900F908091E00159
:102D100080FF0EC08091CE011F928F9388E896E0CD
:102D20009F938F930E9454060F900F900F900F90D7
:102D30008091E00180FF0EC08091CF011F928F93A0
:102D40008EE696E09F938F930E9454060F900F900B
:102D50000F900F908091E00180FF0EC08091D00114
:102D60001F928F9382E596E09F938F930E94540663
:102D70000F900F900F900F901092D2018091CC0184
:102D800080FF04C060E086950E94010F81E080937F
:102D9000B4018FE091E09093B6018093B50185E096
:102DA00098E00E94BB058091FA01853009F04AC085
:102DB00081E098E00E94BB0500E112E18091FA01F8
:102DC000853009F03BC08091FA01843021F11092E6
:102DD000B70188E190E0E0E40FB6F894A8958093FD
:102DE00060000FBEE093600083B7817F846083BF83
:102DF00083B7816083BF7894889583B78E7F83BFC4
:102E00000FB6F894A8958091600088618093600067
:102E1000109260000FBE8091F901882309F4CECF93
:102E20000E945811ECEBF1E081919191892B09F00E
:102E300077C221E0E63CF207B9F7C0CF0E948920B3
:102E40000E9423250E945811882359F08FB7F894C7
:102E50004091B8015091B9016091BA017091BB01E4
:102E60008FBF41EE442E41E0542E5CEB652E51E0C5
:102E7000752E00E010E0098BF301A190B1903F01A5
:102E8000F201C190D1902F01CA24DB24C114D104D6
:102E9000B1F40F5F1F4F0530110569F78FEF8C8775
:102EA0008D871E860E9497268160782F988B8F874A
:102EB0004C855D856E8588890E94592477C08091F4
:102EC000E00181FD05C080E0EE24E394F12C48C0D0
:102ED0008BEB97E00E94BB052CEB822E21E0922E1B
:102EE000E12CF12CFF92EF9226EB37E03F932F93EA
:102EF0000E94540683EB97E00E94BB05F401808199
:102F00002180F2E08F0E911C0E94DE13382E822D5C
:102F10000E94DE13232D30E0322F2227A901482BF7
:102F2000CA019F938F938DEA97E09F938F930E949E
:102F300054068BEA97E00E94BB05FFEFEF1AFF0AE9
:102F40000FB6F894DEBF0FBECDBF35E0E316F10437
:102F500049F6B9CF8F5FEE0CFF1C8F3009F499CF83
:102F600096012E213F21232BA9F38F83498948877E
:102F7000AE20BF2081E0AB2809F480E089870E9461
:102F800097268160782F9B878A874F81588569852E
:102F90008B850E945924000F111FF801EF51FE4F3D
:102FA00080819181E826F926F182E0828091D20128
:102FB000882309F4A5C08091D101E091CC01E69568
:102FC000E81BE093C801823059F4F0E0ED51F84F6E
:102FD000E4910E2F10E0F5E4EF2EF4E2FF2E6BC02B
:102FE000863059F4F0E0E052F84FE4910E2F10E0F3
:102FF000E5E3EE2EE4E2FE2E5EC0893061F4E69554
:10300000F0E0E352F84FE4910E2F10E07BECE72E56
:1030100073E2F72E50C08F3061F4E695F0E0E6528F
:10302000F84FE4910E2F10E067E6E62E63E2F62EED
:1030300042C0853159F4F0E0E952F84FE4910E2F87
:1030400010E059E1E52E53E2F52E35C08831F9F054
:10305000833249F4E5EDF7E00591149145EFE42E54
:1030600043E2F42E28C08432C9F08532F1F48E2F69
:1030700063E00E94722AE92FF0E0EE52F84FE491EB
:103080000E2F10E035EBE32E31E2F32E14C008E2F0
:1030900010E020E9E22E22E2F22E0DC004EF11E052
:1030A00096E5E92E92E2F92E06C000ED17E084EBDA
:1030B000E82E81E2F82E8091C901882361F01092F8
:1030C000C9010E9497269093C7018093C601109270
:1030D000CB011092CA010E949726E091C601F0919F
:1030E000C7018E1B9F0B8F3F9F4750F40E0F1F1F72
:1030F0001093C7010093C60186EC91E0F701099592
:1031000086E0E9EDF1E0DE01119601900D928A95DD
:10311000E1F7E090DB01F090DC010091DD0110911E
:10312000DE011092DB011092DC011092DD011092A1
:10313000DE01E11003C0FF2009F451C08091D701E6
:103140009091D8010E9488269C019091D6019923E4
:1031500009F4FCC02333310508F441C09F3F19F046
:103160009F5F9093D601EE2061F00E94C6101E145E
:1031700014F09FEF01C091E0899F802D112480936E
:10318000DB01FF2061F00E94C6101F1414F09FEFB6
:1031900001C091E0899F802D11248093DC01309142
:1031A000DB013323E1F02091DC012223C1F045EB68
:1031B0003403C0011124992319F09093DB0103C05B
:1031C00081E08093DB0155EB2503C0011124992395
:1031D00019F09093DC0103C081E08093DC010111C0
:1031E00003C0112309F451C08091D4019091D501FD
:1031F0000E9488269C019091D301992309F4ABC0C9
:103200002536310508F441C09F3F19F09F5F909328
:10321000D301002361F00E94A410101614F09FEF58
:1032200001C091E0899F802D11248093DD0111233D
:1032300061F00E94A410111614F09FEF01C091E0FC
:10324000899F802D11248093DE013091DD0133238D
:10325000E1F02091DE012223C1F045EB3403C001EF
:103260001124992319F09093DD0103C081E080932C
:10327000DD0155EB2503C0011124992319F090932A
:10328000DE0103C081E08093DE018091DB018111CA
:103290000BC08091DC01811107C08091DD0181119B
:1032A00003C08091DE0181110E94810FEB82FC82BC
:1032B0000D831E8386E0FE013196A9EDB1E00190F9
:1032C0000D928A95E1F70E9423259091DF018917DD
:1032D00009F469CD0E942325182F8093DF01809186
:1032E000E00182FF60CD80FF04C08EEE97E00E9477
:1032F000BB058091E00180FF0CC01F921F9389EEF7
:1033000097E09F938F930E9454060F900F900F9019
:103310000F908091E00180FF46CD87EE97E041CD90
:1033200009BD19BD09B400FEFDCF8091D8008F7D85
:103330008093D8008091E00082608093E0008091CB
:10334000E00081FDFCCF0E94892038CD2D32314034
:1033500008F006CF44CF2D32314008F057CF95CF3B
:10336000EF92FF920F931F93CF93DF937C018B011A
:103370000E945B14811119C0E70101151105A1F02C
:103380008091E80085FD0AC08091E8008E778093E7
:10339000E8000E945B14882381F307C08991809321
:1033A000F10001501109E9CF80E0DF91CF911F9129
:1033B0000F91FF90EF9008951F93CF93DF93CDB7B8
:1033C000DEB7AA970FB6F894DEBF0FBECDBFECEF05
:1033D000F1E084E092E02091F10021938E179F07A5
:1033E000D1F78091FD01833009F460C030F4813061
:1033F00071F0823009F49AC0B1C08A3009F486C0F5
:103400008B3009F46BC0893009F0A8C020C08091CE
:10341000FC01813A09F0A2C08091E800877F809387
:10342000E8008091000290910102892B21F468E06C
:1034300080EF91E003C060E080E090E070E00E94E7
:10344000E2148091E8008B778093E80087C0809138
:10345000FC01813209F082C080910002909101024A
:10346000029708F07BC08091E800877F8093E80096
:103470008091E80082FD05C08091FA018111F8CFAA
:103480006DC02091F3008091F20090E0922B0297A2
:1034900029F48091F1008B7F813021F48091F1003B
:1034A0008093EF018091E8008B7754C08091FC01FC
:1034B000813A09F053C08091000290910102892B5A
:1034C00009F04CC08091E800877F8093E8008091EC
:1034D000E80080FFFCCF8091190137C08091FC018A
:1034E0008132E1F58091000290910102892BB1F5C2
:1034F0008091E800877F8093E8000E948E1480917D
:10350000FE01809319010E94892028C08091FC014E
:10351000813221F58091E800877F8093E8000E9446
:103520008E148091FF018093EE0118C08091FC0100
:10353000813AA1F48091E800877F8093E800809130
:10354000E80080FFFCCF8091EE018093F100809134
:10355000E8008E778093E8000E948E148091E80046
:1035600083FFD7C18091FC019091FD01492F50E06C
:103570004A30510508F0CDC1FA01EA58FF4F0C94CA
:10358000A62A803821F0823809F0C3C108C0809192
:10359000F8019091F901992389F082600FC0809120
:1035A00000028F70873008F0B4C18093E9008091E9
:1035B000EB0085FB882780F91092E9009091E800E4
:1035C000977F9093E8008093F1001092F1006FC113
:1035D000282F2D7F09F09DC1882319F0823061F0DA
:1035E00098C18091FE01813009F093C1933009F0B8
:1035F00080E08093F9012EC08091FE0181112AC0E4
:10360000809100028F702FEF280F263008F081C1C3
:103610008093E9002091EB0020FF1CC0933021F43F
:103620008091EB00806214C09091EB0090619093C8
:10363000EB0021E030E0A90102C0440F551F8A953C
:10364000E2F74093EA001092EA008091EB00886074
:103650008093EB001092E9008091E800877F8093CF
:10366000E8000E948E1455C1811153C11091FE01D2
:103670001F778091E3008078812B8093E300809115
:10368000E800877F8093E8000E948E148091E80014
:1036900080FFFCCF8091E30080688093E3001111EC
:1036A00002C082E001C083E08093FA0132C18058F9
:1036B000823008F02EC12091FE013091FF012C3D97
:1036C00053E0350779F583E08A838AE289834FB72F
:1036D000F894DE01139620E03EE051E2E32FF0E0A3
:1036E00050935700E49120FF03C0E295EF703F5FD5
:1036F000EF708E2F90E0EA3010F0C79601C0C096B0
:103700008D939D932F5F243149F74FBF8091E8003F
:10371000877F8093E8006AE270E0CE0101960E9404
:10372000E214B4C08091000290910102432F55270A
:1037300043305105A9F068F44130510509F4F8C04F
:103740004230510509F0E5C08BE590E0E7E0F9E093
:103750004BC04132510529F14232510589F1D9C09E
:10376000C901992781309105A1F058F0029709F01D
:10377000D0C0E4E7F9E0E4918E2F90E0E4E7F9E0CF
:1037800030C0E4E9F9E0E4918E2F90E0E4E9F9E05B
:1037900028C0E2E8F9E0E4918E2F90E0E2E8F9E059
:1037A00020C08330910508F0B4C0880F991FFC0138
:1037B000EB59FE4F0190F081E02D89E090E014C0BC
:1037C0008330910508F0A5C0FC01EE0FFF1FE15A00
:1037D000FE4F0190F081E02DDC01A45ABE4F8C9188
:1037E00090E0009709F495C02091E800277F20938E
:1037F000E80020910202309103022817390708F4EB
:10380000C90140E0009789F12091FA01222309F4CF
:103810003DC02530D9F12091E80023FD37C020912B
:10382000E80022FD2FC02091E80020FFEBCF40915F
:10383000F3002091F20030E0342B009759F028304B
:10384000310540F444914093F100319601972F5F88
:103850003F4FF3CF41E02830310509F040E020919F
:10386000E8002E772093E800CDCF4111CDCF0AC0DC
:103870008091FA01882351F0853041F08091E80071
:1038800083FD04C08091E80082FFF2CF8091E800C0
:103890008B778093E8003DC08038D9F58091E800AF
:1038A000877F8093E8008091FB018093F1008091F5
:1038B000E8008E77D4CE81112CC08091FE019091CA
:1038C000FF01992702972CF58091E800877F80936C
:1038D000E8001091FE011093FB010E948E1411115B
:1038E00006C08091E30087FD02C081E001C084E052
:1038F0008093FA0142E061EC81E00E94AD1442E263
:1039000061EC82E00E94AD1442E261EC83E00E942F
:10391000AD148091E80083FF10C08091E800877F9C
:103920008093E8008091EB0080628093EB0005C0FB
:1039300082E190E0E2E6F9E057CFAA960FB6F8945C
:10394000DEBF0FBECDBFDF91CF911F9108951F92B3
:103950000F920FB60F9211242F933F934F935F93C3
:103960006F937F938F939F93AF93BF93CF93DF9387
:10397000EF93FF93C091E900CF708091EC00D82FB6
:10398000D17080FDD0E81092E9008091F000877F2F
:103990008093F00078940E94DC191092E9008091E5
:1039A000F00088608093F000CD2BCF70C093E900C9
:1039B000FF91EF91DF91CF91BF91AF919F918F9147
:1039C0007F916F915F914F913F912F910F900FBE1B
:1039D0000F901F901895E8EDF0E080818E7F808336
:1039E0001092E2001092DA001092E100A0EEB0E036
:1039F0008C9181608C9380818F77808319BCA7ED37
:103A0000B0E08C918E7F8C9380818F7E808310922A
:103A1000ED010895CF92DF92EF92FF920F931F93E3
:103A2000CF93DF93C8EDD0E088818F7E8883E7ED68
:103A3000F0E080818160808384E082BF81E08093B8
:103A4000ED0188818E7F888302EE10E0F8011082FC
:103A50001092DA0081EEC82ED12CF60110828881F6
:103A60008F77888388818068888388818F7D888329
:103A700019BC1092FA011092FB011092F9011092F8
:103A8000F80190EEE92EF12CF70180818B7F808385
:103A900088818160888342E060E080E00E94AD140C
:103AA000F60180818E7F8083F80180818160808330
:103AB000808188608083F70180818E7F8083888108
:103AC00080618883DF91CF911F910F91FF90EF90DC
:103AD000DF90CF9008951F920F920FB60F9211248E
:103AE0002F933F934F935F936F937F938F939F9306
:103AF000AF93BF93EF93FF938091E10082FF49C0A2
:103B00008091E20082FF45C08091E1008B7F80932D
:103B1000E1002091EC012F5F822F62E30E94722A64
:103B2000992319F02093EC0134C01092EC0180919C
:103B3000EB01882371F18091FA01843041F5809185
:103B4000E9008F702091EC00922F917020FD90E899
:103B5000892B93E09093E9009091EB0090FF14C0C3
:103B60009091EE0097FF10C09091E80095FF03C080
:103B70001092F100F9CF9091E80090FF05C090916C
:103B8000E8009E779093E8008F708093E900109290
:103B9000EB018091DA0080FF32C08091D80080FF75
:103BA0002EC08091DA008E7F8093DA008091D90058
:103BB00080FF1CC080E189BD82E189BD09B400FE9F
:103BC000FDCF81E08093FA0183EF98E00E94BB056E
:103BD0008091ED01811113C00E94EB1C0E940A1D0F
:103BE0008091E20084608093E20009C019BC1092C9
:103BF000FA0187EF98E00E94BB051092ED018091D9
:103C0000E10080FF1BC08091E20080FF17C080911F
:103C1000E2008E7F8093E2008091E20080618093D9
:103C2000E2008091D80080628093D80019BC85E0C2
:103C30008093FA018BEF98E00E94BB058091E10030
:103C400084FF32C08091E20084FF2EC080E189BDF4
:103C500082E189BD09B400FEFDCF8091D8008F7D3F
:103C60008093D8008091E1008F7E8093E100809165
:103C7000E2008F7E8093E2008091E2008160809379
:103C8000E2008091FB01882311F084E007C080915D
:103C9000E30087FD02C081E001C083E08093FA0168
:103CA0008FEF98E00E94BB058091E10083FF2BC05D
:103CB0008091E20083FF27C08091E100877F80939D
:103CC000E10082E08093FA011092FB018091E10013
:103CD0008E7F8093E1008091E2008E7F8093E200EE
:103CE0008091E20080618093E20042E060E080E049
:103CF0000E94AD148091F00088608093F00083E012
:103D000099E00E94BB05FF91EF91BF91AF919F9108
:103D10008F917F916F915F914F913F912F910F9074
:103D20000FBE0F901F9018950E942028292F2F70EA
:103D3000E92FE295EF704E2F50E0FA013297EE3006
:103D4000F105B8F4E058FF4F0C94A62A803F99F093
:103D500018F4883E70F40FC0843F59F40CC0883EBC
:103D600050F0813F31F407C0822F86958695869565
:103D7000089580E0089581E008959F92AF92BF92E8
:103D8000CF92DF92EF92FF920F931F93CF93DF9327
:103D9000CDB7DEB761970FB6F894DEBF0FBECDBFCB
:103DA0008C0185E0F801DE011D9601900D928A9547
:103DB000E1F7F80190818181E28030919602609173
:103DC00097024091990250919A024115510531F0A4
:103DD0006F3F31F421E03F3F19F403C021E001C0FF
:103DE00020E0F22FF1709F2E20FD23C1F801C38047
:103DF000D48026E9A22E22E0B22EF0909802F6019D
:103E0000E41BF50BFF2009F4CEC020919B02E83C97
:103E1000F10508F099C0422F407F09F051C06813A6
:103E200011C039130FC0FE2CE1100CC02F7020619F
:103E300020939B02C5010E945D0680919B02F801C0
:103E4000858337C1CD2831F08F3F31F421E09F3F8A
:103E500019F403C021E001C020E020FD03C021E0EF
:103E60002E2502C020E030E0F22FF170FF2E20FF5F
:103E70001DC02091CD0240919C0256E0241709F408
:103E8000F6C030E0529FF001539FF00D1124E3562D
:103E9000FD4F6181861306C06081961303C0628165
:103EA000E61204C02F5F3F4F2770E8CFFE2CEE20B4
:103EB00009F4FFC080919B02816080939B0250C0F7
:103EC000681307C0391305C0E11003C0F80125834A
:103ED0008DC09D878E878D859E850E94941E882328
:103EE00069F1EE2059F120919B02822F82958F700B
:103EF00090E0029774F080919602909197029887D3
:103F00008F831986DB86CA862C87CE0107960E948E
:103F10005D0686E0F801A6E9B2E001900D928A956F
:103F2000E1F70E94FF280DC06817E1F09D878E879A
:103F30008D859E850E94941E81111EC0C8010E941D
:103F40005D06FF24F394B5C0422F407F69F786E9F0
:103F500092E00E945D0686E0F50111928A95E9F7EC
:103F6000F12CA7C03913E2CFE110E0CFF80125838F
:103F7000C8010E945D0657C0EE2001F320919B020C
:103F8000822F82958F7090E002971CF280919602AA
:103F9000909197029A8389831B82DD82CC822E8343
:103FA000CE010196B4CFE83CF105E8F5FE2CEE20F9
:103FB00029F2681327C0391325C020919B0220FDE8
:103FC00018C0822F82958F70482F50E041155105FF
:103FD00081F0F80125834F30510541F08F5F982F14
:103FE0009295907F822F8F70892B8583C8010E94C4
:103FF0005D0686E0F801A6E9B2E001900D928A958F
:10400000E1F757C09D878E878D859E850E94941EFF
:1040100081117FCF80919B02816080939B02C801B8
:104020000E945D0646C086E0F50111928A95E9F787
:1040300040C0EE2009F482CF9D878E878D859E85B6
:104040000E94941EF82E882309F478CF86E0F801A8
:10405000A6E9B2E001900D928A95E1F7809196026F
:10406000909197020E9420280E94FF2822C09D87DD
:104070008E878D859E850E942028292F22952F705E
:10408000223028F49F7039F0811105C00BC0243014
:1040900028F49F7049F4805E883020F0C8010E94A7
:1040A0005D069F2CF92C05C0F8019581907F99F74A
:1040B000F9CF8F2D61960FB6F894DEBF0FBECDBF3E
:1040C000DF91CF911F910F91FF90EF90DF90CF90F4
:1040D000BF90AF909F90089580E090E00E940D25E2
:1040E00080E090E00E94F7241092020310920103F6
:1040F0000E947427E9EDF1E086E0DF011D928A95C8
:10410000E9F71092D6011092D301109204020C9498
:10411000810F1092030386E0E0E9F2E0DF011D92D7
:104120008A95E9F70C946C20882341F08095909152
:1041300003038923809303030C9474270895882331
:1041400039F090910303892B809303030C94742717
:104150000895882309F463C0823869F40E942325F6
:1041600081FF5DC069E38EE892E00E94D9260E943B
:10417000742769E30EC0833891F40E94232580FFE1
:104180004EC063E58EE892E00E94D9260E94742713
:1041900063E58EE892E00E94CC260C947427843864
:1041A00069F40E94232582FF3AC067E48EE892E01A
:1041B0000E94D9260E94742767E4EBCF9CEF980FEA
:1041C000913A10F4682FE5CF90E2980F983088F478
:1041D000877021E030E0A90102C0440F551F8A9585
:1041E000E2F7CA018095909103038923809303032A
:1041F000D4CF9BE5980F933020F480E090E00C94AE
:104200000D2598E5980F973120F480E090E00C940C
:10421000F7248D3E20F00E942D100C94810F0895FC
:10422000CF93882309F49EC0C82F8238B1F40E942E
:10423000232581FD97C069E38EE892E00E94D9268C
:104240000E9474272FEF81EE94E02150804090402F
:10425000E1F700C0000069E317C08338E1F40E9471
:10426000232580FD7FC063E58EE892E00E94D92679
:104270000E9474272FEF81EE94E0215080409040FF
:10428000E1F700C0000063E58EE892E00E94CC26D2
:10429000CF910C9474278438B1F40E94232582FDB9
:1042A00061C067E48EE892E00E94D9260E947427DC
:1042B0002FEF81EE94E0215080409040E1F700C064
:1042C000000067E4E1CF8CEF8C0F813A80F4E0E9E5
:1042D000F2E086E992E02191C217E1F18E179F0783
:1042E000D1F76C2F8EE892E00E94D926D1CF80E2E0
:1042F0008C0F883068F4C77081E090E001C0880FAF
:10430000CA95EAF790910303892B80930303C0CFEA
:10431000EBE5EC0FE33040F4F0E0E559FE4F80812F
:1043200090E0CF910C940D25E8E5EC0FE73150F4C7
:10433000F0E0EE0FFF1FE259FE4F80819181CF9197
:104340000C94F724CD3E70F08C2F0E94E610CF9194
:104350000C94810F6C2F8EE892E00E94CC260E9474
:104360007427BFCFCF91089508959F92AF92BF92C7
:10437000CF92DF92EF92FF920F931F93CF93DF9331
:10438000FC01A280948081E08483E1EBF9E0B490A9
:10439000E0E3FAE0E491C8E3D2E0F8E0EF2EF2E0E7
:1043A000FF2ECC24CA94D12CEB190E2F10E022E062
:1043B0002A1530F08091CD0188838091CE018983C8
:1043C000911003C01B821A8255C08B818823F9F09B
:1043D00081508B832FEF829FC00111246C8170E08C
:1043E0000E947E2AFB01FF27EF54F64F8491E82FAD
:1043F000EB192FEFE29FC0011124B8010E947E2A21
:104400008091CF01689FB00111247A8333C00E944C
:10441000B7292091CF012695215830E0A901440FFA
:10442000551F322F2227240F351F232F33278217A2
:10443000930704F582E08A1588F40E94B729B60133
:104440000E94922A88830E94B7292091CE01269546
:10445000622F70E00E94922A280F29831A8280918D
:10446000CF01843120F0893C18F088EC01C084E150
:104470008C838B8397014A81698188810E942B0DEF
:10448000259623E0E20EF11C82E0C838D80709F037
:104490008ECFDF91CF911F910F91FF90EF90DF9022
:1044A000CF90BF90AF909F900C948E0CEF92FF92A4
:1044B0000F931F93CF93DF938C01C8E0D2E0E12CE0
:1044C000F12CF8018481F8E0EF16F1041CF4882344
:1044D00039F002C0811104C09E014091CF0102C099
:1044E0009E0140E06091CE018091CD010E942B0D94
:1044F0008FEFE81AF80A239690E1E916F10409F71C
:104500000E948E0CF801848190E0019681709927B9
:104510008483DF91CF911F910F91FF90EF900895C9
:104520008F929F92AF92BF92CF92DF92EF92FF92C3
:104530000F931F93CF93DF93EC014C81042F10E076
:104540009801D8010E94632A9B01AC010E942E2A87
:104550006B017C01E0E2F0E0E01BF10BA5E5B0E0CF
:104560009B01AC010E942E2A4B015C019F01DF01DF
:104570000E94AC2A9B01AC010E94392A9B01AC012C
:104580002C0D3D1D4E1D5F1DC501B4010E94412A29
:10459000822FF22E99E2921728F093E0299F900142
:1045A00011240DC025E530E0281B3109C901880F11
:1045B000991F280F391F37FF02C02F5F3F4F3595D6
:1045C0002795122F109598E0C92E92E0D92E00E081
:1045D00085E5E82EEF1801FD02C08E2D01C08F2D5C
:1045E0009601412F6091CE010E942B0D0F5F83E059
:1045F000C80ED11C003179F70E948E0C8C8181117C
:1046000002C091E003C0803219F49FEF90931C0127
:1046100090911C01890F8C83DF91CF911F910F9195
:10462000FF90EF90DF90CF90BF90AF909F908F90D2
:1046300008950F931F93CF93DF93C8E0D2E0FE015C
:10464000118210821282339682E0E833F807C1F7B4
:1046500000E010E080910602082E000C990B08176C
:10466000190794F080911B01082E000C990B8017FC
:10467000910754F09E014091CF016091CE0180914D
:10468000CD010E942B0D03C0198218821A820F5F80
:104690001F4F239600311105E9F60E948E0C809180
:1046A0001A0190910602980F9093060220911B0127
:1046B000280F20931B01121614F49F301CF08195D3
:1046C00080931A01DF91CF911F910F910895CF929E
:1046D000DF92EF92FF920F931F93CF93DF93FC0132
:1046E000828180FF03C0DD24DA9402C0DD24D394EC
:1046F000C8E0D2E000E010E0198218821A8294E04B
:10470000E92EF12CC12C809105028C0D813114F021
:104710008F7002C087FD805F082E000C990B081770
:10472000190791F48091CF018E9DA0018F9D500DAE
:10473000112455954795559547959E016091CE0159
:104740008091CD010E942B0DCD0CF1E0EF1AF10804
:10475000D1F60F5F1F4F23960031110569F60E94B5
:104760008E0C8091050291E0D91206C0811102C021
:104770008FE006C0815004C090E001968F709927A9
:1047800080930502DF91CF911F910F91FF90EF90E1
:10479000DF90CF900895EF92FF921F93CF93DF9316
:1047A000EC0188E0E82E82E0F82E10E08C81970181
:1047B0004091CF016091CE01810F0E942B0D115FBE
:1047C00083E0E80EF11C103F89F70E948E0C9A815D
:1047D0008C8190FF02C08F5F01C081508C83DF917C
:1047E000CF911F91FF90EF9008950F931F93CF9358
:1047F000DF9300D01F92CDB7DEB78C018091070206
:1048000081110AC09E012F5F3F4F4FEF6FEF0E9453
:104810002B0D8A8180930702F8018481813051F049
:1048200028F0823061F4409107020AC080910702AB
:1048300040E007C06091070240E080E003C040E034
:1048400080E060E00E94C40CF801848190E0019651
:1048500063E070E00E94922A84830F900F900F9083
:10486000DF91CF911F910F910895CF93DF93EC01CA
:10487000ECECF1E0438162818C810E94C10D8C815E
:104880008F5F8C83DF91CF910895CF93DF93EC01FD
:10489000EC81F0E0EF54F64F4491ECECF1E06281F2
:1048A00081810E94C10D8C818F5F8C83DF91CF91BC
:1048B00008951F93CF93DF93CDB7DEB767970FB6F9
:1048C000F894DEBF0FBECDBF342F4B8B252F5C8BF2
:1048D0006D8B7E8B8F8B4E895F89611110920203E5
:1048E00086E0FE013D96DF01982F1D929A95E9F72B
:1048F0003D872E876F87598B488BDE011796019075
:104900000D928A95E1F7CE0107960E94BD1E811196
:104910003EC086E0FE013796DE01119601900D92B1
:104920008A95E1F7FF81E8856A857B8561157105C8
:1049300031F0EF3F31F481E0FF3F19F403C081E033
:1049400001C080E080FD23C020919C0230E0C901BD
:104950000196877099274091CD0250E08417950702
:1049600079F1F983EA837D836C8396E0929FD0018D
:10497000939FB00D1124A356BD4FFE0131960190B7
:104980000D929A95E1F780939C020E94F52816E01B
:104990008091CD0290919C028917F9F0189FC00177
:1049A000112483569D4F0E94BD1E8823B1F0809133
:1049B000CD0290E00196877099278093CD02E8CFD1
:1049C0000E94892010929C021092CD02E6E9F2E04A
:1049D00086E0DF011D928A95E9F767960FB6F89495
:1049E000DEBF0FBECDBFDF91CF911F910895209103
:1049F0008C0230918D022817390771F090938D0247
:104A000080938C02E091B501F091B601309721F0CE
:104A10000084F185E02D0994089520918A02309157
:104A20008B022817390771F090938B0280938A02CA
:104A3000E091B501F091B601309721F00680F78141
:104A4000E02D09940895E091B501F091B6013097F9
:104A500021F00190F081E02D099480E00895EF921B
:104A6000FF920F93CF93DF93C42FD22FFC0182814B
:104A70008823D1F040939E010E949726909389024B
:104A80008093880280E28C0F883008F06DC0C77078
:104A900081E001C0880FCA95EAF7DF91CF910F91AD
:104AA000FF90EF900C949F2080919E0148134BC083
:104AB00080918802909189020E948826883C910505
:104AC00008F041C0CD17C9F080E28C0F883040F467
:104AD000C77081E001C0880FCA95EAF70E94942050
:104AE00080E28D0F883048F481E09D2F977001C0DF
:104AF000880F9A95EAF70E949F20093319F0E12C5C
:104B0000F12C03C080E5E82EF12C802F0E941021AB
:104B1000E114F10451F08FE99FE00197F1F700C033
:104B2000000091E0E91AF108F3CF802F0E94A9203C
:104B300080E28D0F8830C0F4D77081E001C0880F0B
:104B4000DA95EAF70AC080E28C0F883068F4C77003
:104B500081E001C0880FCA95EAF7DF91CF910F91EC
:104B6000FF90EF900C949420DF91CF910F91FF90E4
:104B7000EF9008959091CC0190FF04C096959817FE
:104B800040F003C0811105C090E0961710F40C941A
:104B9000770F61E00C94010F882311F0FA0101C036
:104BA000FB0109941092D2018091E00180FF08C0BE
:104BB00088E999E09F938F930E9454060F900F907D
:104BC00008958091EF01089522E02093E9002FEFEE
:104BD0003091E800215035FD06C035ED3A95F1F7EA
:104BE00000002111F5CF2091E80025FF0BC040E027
:104BF00050E066E070E00E94B0198091E8008E7786
:104C00008093E8000895CF93DF9321E02093E9009B
:104C10002FEF3091E800215035FD06C035ED3A9573
:104C2000F1F700002111F5CF2091E80025FF14C015
:104C3000EC0140E050E068E070E00E94B019809123
:104C4000E8008E778093E80088E0FE01A0EFB1E0F5
:104C500001900D928A95E1F7DF91CF910895CF935E
:104C6000DF9300D01F92CDB7DEB79091FA01943058
:104C700019F589837B836A8382E08093E9008FEF53
:104C80009091E800815095FD06C095ED9A95F1F759
:104C900000008111F5CF8091E80085FF0DC040E054
:104CA00050E063E070E0CE0101960E94B01980915F
:104CB000E8008E778093E8000F900F900F90DF91BF
:104CC000CF91089578941F920F920FB60F921124EE
:104CD0008F939F93AF93BF938091B8019091B90147
:104CE000A091BA01B091BB010196A11DB11D8093A5
:104CF000B8019093B901A093BA01B093BB01BF91E1
:104D0000AF919F918F910F900FBE0F901F901895AC
:104D10009C014FB7F8948091B8019091B901A0918E
:104D2000BA01B091BB014FBF821B930B08952FB7FF
:104D3000F8948091B8019091B901A091BA01B09115
:104D4000BB012FBF08951F920F920FB60F9211242F
:104D50008F939F93AF93BF938091B701811113C03D
:104D60008091B8019091B901A091BA01B091BB01B5
:104D70004196A11DB11D8093B8019093B901A093F4
:104D8000BA01B093BB01BF91AF919F918F910F90EA
:104D90000FBE0F901F9018959C012A5F3F4FFC019A
:104DA0004281461301C01282019682179307B9F718
:104DB00008959C01FC0132969FEF80E041914617D7
:104DC00089F09F3F19F4411101C0982F8F5F863001
:104DD000A9F79F3F39F0F901E90FF11D97FDFA9509
:104DE000628308950895CF9384E090E00E94C729DC
:104DF000C82F81E290E00E94C7292C2F30E0A90142
:104E0000582BCA01CF9108956BEE7EEF80E090E0C1
:104E10000E94F92960E082E090E00E94DB2960E0D6
:104E200083E090E00E94DB291092050310920603B4
:104E3000109207031092080360E084E090E00E9463
:104E4000DB2960E081E290E00E94DB2960E085E000
:104E500090E00E94DB2960E086E090E00E94DB2980
:104E60006FEF87E090E00E94DB2940E050E0BA015C
:104E700088E090E00E94ED2960E08DE090E00E94E3
:104E8000DB2940E050E0BA0188E190E00E94ED2982
:104E900060E087E190E00E94DB2940E050E0BA0149
:104EA0008CE190E00E94ED2960E080E290E00E94B9
:104EB000DB2940E050E0BA0188E190E00E94ED2952
:104EC00040E050E0BA018FE090E00E94ED2940E020
:104ED00050E0BA0183E190E00C94ED298091040345
:104EE0008111109204030895EF92FF920F931F9384
:104EF000CF939091030380910203892B20910103AA
:104F0000982F922B90938E0280910403882389F02E
:104F1000892B80938E02E0E9F2E097E080E09150E7
:104F200029F021912223D9F38F5FF9CF81110E94BB
:104F30006E27E091B501F091B6013097C9F102807A
:104F4000F381E02D8EE892E009958091E00182FFE7
:104F50002FC080FF04C089EB9AE00E94BB050EE8D9
:104F600012E0C8E083EBE82E8AE0F82E8091E001A1
:104F700080FF0CC0F80180811F928F93FF92EF9207
:104F80000E9454060F900F900F900F90C1500F5F2A
:104F90001F4FC111EBCF8091E00180FF09C081EB71
:104FA0009AE0CF911F910F91FF90EF900C94BB0569
:104FB000CF911F910F91FF90EF900895BF92CF92E4
:104FC000DF92EF92FF920F931F93CF93DF938C01A9
:104FD000C090AE01D090AF01E090B001F090B1016F
:104FE0008091050390910603A0910703B0910803F7
:104FF000C82AD92AEA2AFB2ACFE1D0E0D701C60184
:105000000C2E04C0B695A795979587950A94D2F76C
:1050100080FD04C0219790F7B12C07C0BC2EB801C9
:105020008C2F0E9420120197A9F38B2DDF91CF9135
:105030001F910F91FF90EF90DF90CF90BF90089558
:10504000CF93DF93EC010E94DE27BE010E94201265
:10505000DF91CF9108952FE0929F800D1124682F4A
:10506000669566956695982F977085E0689FB00164
:10507000112440E050E080E0FB01E40FF51FE25313
:10508000FD4F208130E0092E02C0369527950A9405
:10509000E2F721703327042E01C0220F0A94EAF7A9
:1050A000822B4F5F5F4F4530510531F708952FE058
:1050B000929F800D1124E82FE695E695E69587707E
:1050C00051E001C0550F8A95EAF785E0E89FF001AD
:1050D0001124E253FD4F20E030E070E04081CB012D
:1050E000022E02C0969587950A94E2F78170819509
:1050F00084278523842781932F5F3F4F25303105F7
:1051000069F708956093AE017093AF018093B00189
:105110009093B1010C946C200F931F9341E050E0E9
:1051200060E070E004C0440F551F661F771F8A952A
:10513000D2F740955095609570958091AE01909111
:10514000AF01A091B001B091B1018A019B01082388
:1051500019232A233B23C901B8011F910F910C94F5
:105160008228209100038095822380930003982F4A
:10517000977079F430E0482F082E000C550B241757
:10518000350739F08595859585950E948C28109274
:10519000000308950F931F9341E050E060E070E03A
:1051A00004C0440F551F661F771F8A95D2F7809160
:1051B000AE019091AF01A091B001B091B1018A010F
:1051C0009B01082B192B2A2B3B2BC901B8011F91DE
:1051D0000F910C94822860930503709306038093CB
:1051E0000703909308030C946C208091CD0290915A
:1051F0009C02891719F08F5F8770FBCF08950F937A
:105200001F93CF93DF9380919B0282958F7009F05B
:105210005DC080919802882309F458C08091CD0226
:1052200010919C026091960270919702C091990230
:10523000D0919A0291E06F3F09F090E0292F06E0AB
:10524000811709F443C0209721F07F3F21F030E01F
:1052500003C031E001C0322F90E030FD34C0089F20
:10526000F001099FF00D1124DF01A356BD4F1196E7
:105270003C911197371327C03C91361324C01296E6
:105280003C91129731111FC013964D915C91149768
:105290004C1B5D0B483C5105B0F480919B028F7014
:1052A000806180939B02EE55FD4F80818F708061FD
:1052B000808386E992E00E945D06DF91CF911F9185
:1052C0000F910C94F52801968770BACFDF91CF919A
:1052D0001F910F9108958F929F92AF92BF92CF929C
:1052E000DF92EF92FF92CF93DF93EC016881798197
:1052F0008A819B81611571058105910521F464E224
:1053000079ED8BE597E02DE133EF41E050E00E942D
:105310000F2A49015A019B01AC01A7EAB1E40E949E
:105320002E2A6B017C01ACEEB4EFA50194010E9422
:105330003C2ADC01CB018C0D9D1DAE1DBF1DB7FFAE
:1053400003C00197A109B04888839983AA83BB83CE
:105350009F77DF91CF91FF90EF90DF90CF90BF903C
:10536000AF909F908F9008950E946B29089580E0E0
:1053700091E00E946B290895A0E0B0E080930001C5
:1053800090930101A0930201B09303010895F9994C
:10539000FECF92BD81BDF89A992780B50895A6E108
:1053A000B0E044E050E00C94012AA8E1B0E042E013
:1053B00050E00C94012A262FF999FECF92BD81BDB1
:1053C000F89A019700B4021639F01FBA20BD0FB643
:1053D000F894FA9AF99A0FBE08950396272F0E941F
:1053E000DC290E94DB29252F0E94DC29242F0C9424
:1053F000DC290196272F0E94DC290C94DB29DC0193
:10540000CB01FC01F999FECF06C0F2BDE1BDF89ACF
:10541000319600B40D9241505040B8F70895052ED2
:1054200097FB1EF400940E94262A57FD07D00E9485
:10543000412A07FC03D04EF40C94262A509540953F
:10544000309521953F4F4F4F5F4F08959095809530
:10545000709561957F4F8F4F9F4F08950E94632AEB
:10546000A59F900DB49F900DA49F800D911D1124B8
:105470000895B7FF0C942E2A0E942E2A821B930BAC
:105480000895A1E21A2EAA1BBB1BFD010DC0AA1F85
:10549000BB1FEE1FFF1FA217B307E407F50720F09D
:1054A000A21BB30BE40BF50B661F771F881F991F18
:1054B0001A9469F760957095809590959B01AC0161
:1054C000BD01CF010895A29FB001B39FC001A39F6A
:1054D000700D811D1124911DB29F700D811D11242D
:1054E000911D0895991B79E004C0991F961708F043
:1054F000961B881F7A95C9F780950895AA1BBB1B38
:1055000051E107C0AA1FBB1FA617B70710F0A61BC3
:10551000B70B881F991F5A95A9F780959095BC01E4
:10552000CD01089597FB072E16F4009407D077FD60
:1055300009D00E947E2A07FC05D03EF49095819503
:105540009F4F0895709561957F4F0895EE0FFF1F4F
:105550000590F491E02D09940E94632A332312F4FC
:105560008A1B9B0B0C94B62A0E94632AB7FF0895EE
:10557000821B930B0895FC014150504030F0019084
:105580000616D1F73197CF010895882799270895F6
:04559000F894FFCFBD
:105594000100000001191A1B1C1D1E1F202122E1FD
:1055A400250326E4255714531401010201000102C6
:1055B4000202020606060909090909090F0F0F0F5D
:1055C4000F0F151515181919191919191919191968
:1055D40023242525252525253033673666F6F5F45D
:1055E400F1C695939291909496973435407B22B36B
:1055F4000838081608190932094B09818283E20028
:10560400E900EA00B500B600B700CD008301CC0084
:105614008A01920194012102230224022502260216
:0C56240027022A02B300B4006F007000DF
:00000001FF
